{
  "_format": "hh-sol-artifact-1",
  "contractName": "CrowdFunding",
  "sourceName": "contracts/CrowdFunding.sol",
  "abi": [
    {
      "inputs": [],
      "stateMutability": "nonpayable",
      "type": "constructor"
    },
    {
      "anonymous": false,
      "inputs": [
        {
          "indexed": false,
          "internalType": "string",
          "name": "projectId",
          "type": "string"
        },
        {
          "indexed": false,
          "internalType": "string",
          "name": "contributor",
          "type": "string"
        },
        {
          "indexed": false,
          "internalType": "uint256",
          "name": "amount",
          "type": "uint256"
        },
        {
          "indexed": false,
          "internalType": "uint256",
          "name": "amountInUSD",
          "type": "uint256"
        }
      ],
      "name": "ContributionReceived",
      "type": "event"
    },
    {
      "anonymous": false,
      "inputs": [
        {
          "indexed": false,
          "internalType": "uint256",
          "name": "ethAmount",
          "type": "uint256"
        },
        {
          "indexed": false,
          "internalType": "uint256",
          "name": "usdAmount",
          "type": "uint256"
        }
      ],
      "name": "ETHtoUSDConversion",
      "type": "event"
    },
    {
      "inputs": [
        {
          "internalType": "string",
          "name": "_projectId",
          "type": "string"
        },
        {
          "internalType": "string",
          "name": "_contributorId",
          "type": "string"
        }
      ],
      "name": "contribute",
      "outputs": [],
      "stateMutability": "payable",
      "type": "function"
    },
    {
      "inputs": [
        {
          "internalType": "uint256",
          "name": "ethAmount",
          "type": "uint256"
        }
      ],
      "name": "getETHInUSD",
      "outputs": [
        {
          "internalType": "uint256",
          "name": "",
          "type": "uint256"
        }
      ],
      "stateMutability": "nonpayable",
      "type": "function"
    },
    {
      "inputs": [],
      "name": "getLatestETHUSDPrice",
      "outputs": [
        {
          "internalType": "uint256",
          "name": "",
          "type": "uint256"
        }
      ],
      "stateMutability": "view",
      "type": "function"
    },
    {
      "inputs": [
        {
          "internalType": "string",
          "name": "",
          "type": "string"
        }
      ],
      "name": "projects",
      "outputs": [
        {
          "internalType": "uint256",
          "name": "fundsRaised",
          "type": "uint256"
        },
        {
          "internalType": "bool",
          "name": "isCompleted",
          "type": "bool"
        }
      ],
      "stateMutability": "view",
      "type": "function"
    }
  ],
  "bytecode": "0x6080604052348015600f57600080fd5b5073694aa1769357215de4fac081bf1f309adc325306600160006101000a81548173ffffffffffffffffffffffffffffffffffffffff021916908373ffffffffffffffffffffffffffffffffffffffff16021790555061110a806100746000396000f3fe60806040526004361061003f5760003560e01c80636aa83fea1461004457806391c9b2681461006f57806398678e45146100ad578063d398cd19146100c9575b600080fd5b34801561005057600080fd5b50610059610106565b6040516100669190610543565b60405180910390f35b34801561007b57600080fd5b50610096600480360381019061009191906106b8565b6101b7565b6040516100a492919061071c565b60405180910390f35b6100c760048036038101906100c29190610745565b6101fe565b005b3480156100d557600080fd5b506100f060048036038101906100eb91906107e9565b6104b7565b6040516100fd9190610543565b60405180910390f35b600080600160009054906101000a900473ffffffffffffffffffffffffffffffffffffffff1673ffffffffffffffffffffffffffffffffffffffff1663feaf968c6040518163ffffffff1660e01b815260040160a060405180830381865afa158015610176573d6000803e3d6000fd5b505050506040513d601f19601f8201168201806040525081019061019a91906108a3565b5050509150506402540be400816101b1919061094d565b91505090565b6000818051602081018201805184825260208301602085012081835280955050505050506000915090508060000154908060010160009054906101000a900460ff16905082565b6000808360405161020f9190610a36565b9081526020016040518091039020905060003411610262576040517f08c379a000000000000000000000000000000000000000000000000000000000815260040161025990610ad0565b60405180910390fd5b8060010160009054906101000a900460ff16156102b4576040517f08c379a00000000000000000000000000000000000000000000000000000000081526004016102ab90610b62565b60405180910390fd5b348160000160008282546102c89190610b82565b92505081905550600081600301836040516102e39190610a36565b9081526020016040518091039020540361036057806002016040518060400160405280848152602001348152509080600181540180825580915050600190039060005260206000209060020201600090919091909150600082015181600001908161034e9190610dc2565b5060208201518160010155505061040d565b60005b816002018054905081101561040b5782805190602001208260020182815481106103905761038f610e94565b5b90600052602060002090600202016000016040516103ae9190610f66565b6040518091039020036103fe57348260020182815481106103d2576103d1610e94565b5b906000526020600020906002020160010160008282546103f29190610b82565b9250508190555061040b565b8080600101915050610363565b505b3481600301836040516104209190610a36565b9081526020016040518091039020600082825461043d9190610b82565b92505081905550600061044e610106565b90506000670de0b6b3a764000082346104679190610f7d565b6104719190610fee565b90507f3f773d38e1e0158a784d08998f8e43297ad0c4df5ef25f7eea21711a7494e6ce858534846040516104a89493929190611058565b60405180910390a15050505050565b6000806104c2610106565b90506000670de0b6b3a764000084836104db9190610f7d565b6104e59190610fee565b90507f51d72fad0d1646ebb93c68a02f143e1965d0248bd545756debf33901ca011a6a84826040516105189291906110ab565b60405180910390a18092505050919050565b6000819050919050565b61053d8161052a565b82525050565b60006020820190506105586000830184610534565b92915050565b6000604051905090565b600080fd5b600080fd5b600080fd5b600080fd5b6000601f19601f8301169050919050565b7f4e487b7100000000000000000000000000000000000000000000000000000000600052604160045260246000fd5b6105c58261057c565b810181811067ffffffffffffffff821117156105e4576105e361058d565b5b80604052505050565b60006105f761055e565b905061060382826105bc565b919050565b600067ffffffffffffffff8211156106235761062261058d565b5b61062c8261057c565b9050602081019050919050565b82818337600083830152505050565b600061065b61065684610608565b6105ed565b90508281526020810184848401111561067757610676610577565b5b610682848285610639565b509392505050565b600082601f83011261069f5761069e610572565b5b81356106af848260208601610648565b91505092915050565b6000602082840312156106ce576106cd610568565b5b600082013567ffffffffffffffff8111156106ec576106eb61056d565b5b6106f88482850161068a565b91505092915050565b60008115159050919050565b61071681610701565b82525050565b60006040820190506107316000830185610534565b61073e602083018461070d565b9392505050565b6000806040838503121561075c5761075b610568565b5b600083013567ffffffffffffffff81111561077a5761077961056d565b5b6107868582860161068a565b925050602083013567ffffffffffffffff8111156107a7576107a661056d565b5b6107b38582860161068a565b9150509250929050565b6107c68161052a565b81146107d157600080fd5b50565b6000813590506107e3816107bd565b92915050565b6000602082840312156107ff576107fe610568565b5b600061080d848285016107d4565b91505092915050565b600069ffffffffffffffffffff82169050919050565b61083581610816565b811461084057600080fd5b50565b6000815190506108528161082c565b92915050565b6000819050919050565b61086b81610858565b811461087657600080fd5b50565b60008151905061088881610862565b92915050565b60008151905061089d816107bd565b92915050565b600080600080600060a086880312156108bf576108be610568565b5b60006108cd88828901610843565b95505060206108de88828901610879565b94505060406108ef8882890161088e565b93505060606109008882890161088e565b925050608061091188828901610843565b9150509295509295909350565b7f4e487b7100000000000000000000000000000000000000000000000000000000600052601160045260246000fd5b600061095882610858565b915061096383610858565b925082820261097181610858565b91507f800000000000000000000000000000000000000000000000000000000000000084146000841216156109a9576109a861091e565b5b82820584148315176109be576109bd61091e565b5b5092915050565b600081519050919050565b600081905092915050565b60005b838110156109f95780820151818401526020810190506109de565b60008484015250505050565b6000610a10826109c5565b610a1a81856109d0565b9350610a2a8185602086016109db565b80840191505092915050565b6000610a428284610a05565b915081905092915050565b600082825260208201905092915050565b7f436f6e747269627574696f6e206d75737420626520677265617465722074686160008201527f6e20300000000000000000000000000000000000000000000000000000000000602082015250565b6000610aba602383610a4d565b9150610ac582610a5e565b604082019050919050565b60006020820190508181036000830152610ae981610aad565b9050919050565b7f50726f6a6563742066756e64696e6720697320616c726561647920636f6d706c60008201527f6574656400000000000000000000000000000000000000000000000000000000602082015250565b6000610b4c602483610a4d565b9150610b5782610af0565b604082019050919050565b60006020820190508181036000830152610b7b81610b3f565b9050919050565b6000610b8d8261052a565b9150610b988361052a565b9250828201905080821115610bb057610baf61091e565b5b92915050565b7f4e487b7100000000000000000000000000000000000000000000000000000000600052602260045260246000fd5b60006002820490506001821680610bfd57607f821691505b602082108103610c1057610c0f610bb6565b5b50919050565b60008190508160005260206000209050919050565b60006020601f8301049050919050565b600082821b905092915050565b600060088302610c787fffffffffffffffffffffffffffffffffffffffffffffffffffffffffffffffff82610c3b565b610c828683610c3b565b95508019841693508086168417925050509392505050565b6000819050919050565b6000610cbf610cba610cb58461052a565b610c9a565b61052a565b9050919050565b6000819050919050565b610cd983610ca4565b610ced610ce582610cc6565b848454610c48565b825550505050565b600090565b610d02610cf5565b610d0d818484610cd0565b505050565b5b81811015610d3157610d26600082610cfa565b600181019050610d13565b5050565b601f821115610d7657610d4781610c16565b610d5084610c2b565b81016020851015610d5f578190505b610d73610d6b85610c2b565b830182610d12565b50505b505050565b600082821c905092915050565b6000610d9960001984600802610d7b565b1980831691505092915050565b6000610db28383610d88565b9150826002028217905092915050565b610dcb826109c5565b67ffffffffffffffff811115610de457610de361058d565b5b610dee8254610be5565b610df9828285610d35565b600060209050601f831160018114610e2c5760008415610e1a578287015190505b610e248582610da6565b865550610e8c565b601f198416610e3a86610c16565b60005b82811015610e6257848901518255600182019150602085019450602081019050610e3d565b86831015610e7f5784890151610e7b601f891682610d88565b8355505b6001600288020188555050505b505050505050565b7f4e487b7100000000000000000000000000000000000000000000000000000000600052603260045260246000fd5b600081905092915050565b60008190508160005260206000209050919050565b60008154610ef081610be5565b610efa8186610ec3565b94506001821660008114610f155760018114610f2a57610f5d565b60ff1983168652811515820286019350610f5d565b610f3385610ece565b60005b83811015610f5557815481890152600182019150602081019050610f36565b838801955050505b50505092915050565b6000610f728284610ee3565b915081905092915050565b6000610f888261052a565b9150610f938361052a565b9250828202610fa18161052a565b91508282048414831517610fb857610fb761091e565b5b5092915050565b7f4e487b7100000000000000000000000000000000000000000000000000000000600052601260045260246000fd5b6000610ff98261052a565b91506110048361052a565b92508261101457611013610fbf565b5b828204905092915050565b600061102a826109c5565b6110348185610a4d565b93506110448185602086016109db565b61104d8161057c565b840191505092915050565b60006080820190508181036000830152611072818761101f565b90508181036020830152611086818661101f565b90506110956040830185610534565b6110a26060830184610534565b95945050505050565b60006040820190506110c06000830185610534565b6110cd6020830184610534565b939250505056fea2646970667358221220e7f4c03335ebb0f39342fd91c24311f7a17c854493aa4d83e54e91426d169ee364736f6c634300081b0033",
  "linkReferences": {},
  "deployedLinkReferences": {}
}